:020000040800F2
:10000000701F0020850200081567000817670008A8
:100010002167000825670008296700080000000024
:100020000000000000000000000000002D67000834
:100030002F670008000000003167000833670008E0
:100040009F0200089F0200089F0200089F0200080C
:100050009F0200089F0200089F0200089F020008FC
:100060009F0200089F0200089F0200089F020008EC
:100070009F0200089F0200089F0200089F020008DC
:100080009F0200089F0200089F0200089F020008CC
:100090009F0200089F0200089F02000835670008C1
:1000A0009F0200089F0200089F0200089F020008AC
:1000B00013590008795B00089F0200089F0200089E
:1000C0009F0200089F0200089F0200089F0200088C
:1000D0009F0200089F2A0008E9560008EB2A000842
:1000E0009F0200089F0200089F02000800F002F82B
:1000F00000F0B0F80AA090E8000C82448344AAF112
:100100000107DA4501D100F0A5F8AFF2090EBAE80F
:100110000F0013F0010F18BFFB1A43F0010318473B
:1001200040BB000060BB00000A444FF0000C10F818
:10013000013B13F0070408BF10F8014B1D1108BF65
:1001400010F8015B641E05D010F8016B641E01F805
:10015000016BF9D113F0080F1EBF10F8014BAD1C55
:100160000C1B09D16D1E58BF01F801CBFAD505E073
:1001700014F8016B01F8016B6D1EF9D59142D6D3CD
:10018000704700000023002400250026103A28BFF5
:1001900078C1FBD8520728BF30C148BF0B607047F9
:1001A0006E2907F0E984702907F00F8366290BF0A8
:1001B000408365290BF03D8367290BF03A83612961
:1001C000AFF3008003681B0A28BF41F08001692952
:1001D00007F08082642907F07D82752907F07A8212
:1001E0006F2907F0F787782907F0DB82E92907F004
:1001F0009187E42907F08E87F52907F08B87EF298F
:1002000007F0F487F82907F0DA820368DB0928BFD2
:1002100041F08001632907F00087732907F0058703
:10022000E32908F01D81F32908F02281002070479E
:100230001FB508F079F80400002000210AF05EF9EB
:10024000401C6060002000210AF042F9E0601FBD00
:1002500010B510BD08F012FA1146FFF7E9FF06F0DD
:10026000F8F908F091FC03B4FFF7F2FF03BC02F0C9
:1002700007FC000000BF30BF72B662B680F308888A
:10028000704700000948804709480047FEE7FEE73D
:10029000FEE7FEE7FEE7FEE7FEE7FEE7FEE7FEE736
:1002A00004480549054A064B7047000037680008B6
:1002B000ED00000870130020701F00207017002050
:1002C0007017002031490143314A1160704770B501
:1002D000002100230F22C47804B32D4C246804F4B9
:1002E000E064C4F5E064210AC1F10403CA40447823
:1002F00004FA03F18478144021430901254C06785F
:10030000A155047804F01F050124AC4005786D1157
:10031000AD0005F1E025C5F8004109E0047804F0DE
:100320001F050124AC401C4D0678761145F8264087
:1003300070BD1A4A0A400243154B1B1F1A607047D2
:1003400039B1134A121D12680243114B1B1D1A606A
:1003500006E00F4A121D126882430D4B1B1D1A60E6
:100360007047042808D14FF0E021096941F00401E9
:100370004FF0E022116107E04FF0E021096921F020
:1003800004014FF0E0221161704700000000FA05FF
:100390000CED00E000E400E080E100E080FFFF1FE2
:1003A00010B50446FA48844208D10121401501F0F5
:1003B0000BFA0021601501F007FA17E0F5488442B6
:1003C00008D10121001501F0FFF90021201501F0ED
:1003D000FBF90BE0F048844208D10121C80301F089
:1003E000F3F900214FF4004001F0EEF910BD30B5F3
:1003F0000246002000235068E84C20400D790C682C
:1004000044EA0524204350609068E54C2040D1E93F
:1004100002542C434D7944EA450420439060D06A4D
:1004200020F470000C7C641EE4B2234340EA0350C5
:10043000D06230BD00210160017141718160C160F5
:1004400001210174704721B1826842F0010282608B
:1004500003E0826822F001028260704721B1826865
:1004600042F48072826003E0826822F480728260CB
:10047000704710B50023CBB21AB144681C434460E6
:1004800002E044689C43446010BD816841F008016B
:1004900081607047014600208A6802F008020AB1B4
:1004A000012000E000207047816841F00401816074
:1004B0007047014600208A6802F004020AB1012058
:1004C00000E00020704721B1826842F4A0028260FF
:1004D00003E0826822F4A002826070470146002097
:1004E0008A6802F480020AB1012000E0002070470F
:1004F00010B50A4600210023416821F46041531ED3
:1005000041EA4331416010BD21B1426842F40062CA
:10051000426003E0426822F4006242607047F0B536
:1005200004460D4600200021092D11DDE068A5F1EB
:100530000A0606EB4607072606FA07F18843A5F1E7
:100540000A0606EB460603FA06F10843E0600CE0F3
:10055000206905EB4507072606FA07F1884305EBF6
:10056000450603FA06F108432061072A0FDA606B9B
:10057000561E06EB86071F2606FA07F18843561E0D
:1005800006EB860605FA06F10843606322E00D2AB1
:100590000FDA206BD61F06EB86071F2606FA07F137
:1005A0008843D61F06EB860605FA06F1084320634A
:1005B00010E0E06AA2F10D0606EB86071F2606FA98
:1005C00007F18843A2F10D0606EB860605FA06F14F
:1005D0000843E062F0BD21B1826842F4801282607B
:1005E00003E0826822F48012826070470146C86C82
:1005F00080B2704766484C300068704721B142684D
:1006000042F48062426003E0426822F48062426009
:10061000704721B1426842F48052426003E0426870
:1006200022F48052426070470A460021816821F41A
:10063000E04111438160704721B1826842F4004279
:10064000826003E0826822F400428260704721B138
:10065000826842F40212826003E0826822F402128D
:1006600082607047014600208A6802F400120AB1D5
:10067000012000E000207047F0B504461546002038
:1006800000220026092911DDE068A1F10A0707EB25
:10069000470C072707FA0CF29043A1F10A0707EB72
:1006A000470703FA07F21043E0600CE0206901EB12
:1006B000410C072707FA0CF2904301EB410703FABC
:1006C00007F210432061A06BC0F30156EF1C06F146
:1006D000010CA7EB0C0707EB870C1F2707FA0CF29E
:1006E0009043EF1C06F1010CA7EB0C0707EB870703
:1006F00001FA07F21043A063F0BD10B50A460021CD
:100700000023816B21F44011531E41EA03518163A0
:1007100010BD08B5002300930090009B0B4400938C
:10072000009B1A6008BD08B50246002000900092A8
:1007300001F12800009B184400900098006880B2E6
:1007400008BD0A4600214168164B1940114341601B
:1007500070474162826270470A460021416821F079
:100760001F0111434160704740B1094908310968D0
:1007700041F40001064A0832116007E004490831DB
:10078000096821F40001024A083211607047000034
:100790000024014000280140003C0140FFFEF0FF22
:1007A000FDF7F1FFFFFD3FFF0246002013680B40FD
:1007B0000BB1012000E000207047CA43026070477F
:1007C00070B502460020002300240B125568CEB2FB
:1007D00005EA060415681D4015B10CB1012000E0C2
:1007E000002070BD00220A12D3430360704700004E
:1007F00001684FF6FE721140016000210160416006
:100800008160C1608D49884208D18C4908394968A6
:1008100041F00F01894A083A51608AE08749143152
:10082000884208D185490839496841F0F001834A76
:10083000083A51607DE081492831884208D17F49DA
:100840000839496841F470617C4A083A516070E0A7
:100850007A493C31884208D178490839496841F4DD
:100860007041764A083A516063E0744950318842D9
:1008700008D172490839496841F470216F4A083A31
:10088000516056E06D496431884208D16B4908399E
:10089000496841F47001694A083A516049E0674982
:1008A0007831884208D165490839496841F070615A
:1008B000624A083A51603CE06149884206D1011F12
:1008C000096841F00F01021F116032E05C491431E8
:1008D000884208D15A49091F096841F0F001584A75
:1008E000121F116025E056492831884208D1544929
:1008F000091F096841F47061514A121F116018E024
:100900004F493C31884208D14D49091F096841F4DB
:1009100070414B4A121F11600BE049495031884227
:1009200007D14749091F096841F47021444A121F41
:100930001160704710B50022026847F6F0739A43C1
:100940000C6A8B6823430C6923434C6923438C69ED
:100950002343CC6923434C6A23438C6A23431A43C1
:100960000260CB6843600B6883604B68C36010BD56
:100970000021016041608160C1600161416181616C
:10098000C161016241628162704721B1026842F037
:100990000102026004E002684FF6FE731A40026032
:1009A00070471AB103680B43036002E003688B438E
:1009B00003607047416070470146486880B27047E5
:1009C00001460020002201F080531BB11C4B083B64
:1009D0001A6802E0194B083B1A6802EA01030BB1DE
:1009E000012000E00020704700F0805119B1144947
:1009F000091F086002E01149083948607047014644
:100A00000020002201F080531BB10D4B083B1A68F7
:100A100002E00A4B083B1A6802EA01030BB101200D
:100A200000E00020704700F0805119B10449091F0F
:100A3000086002E001490839486070470800024038
:100A400008040240002044490860091D0860091D8F
:100A50000860091D086041483F491431086070472B
:100A600000213D498279002A3AD00A46126803687B
:100A70009A430B461A600A1D126803689A430B1DBD
:100A80001A60027911440A6803681A430A60324AFC
:100A90000832126803689A432F4B08331A601A1DF4
:100AA000126803689A432C4B0C331A604279102A5F
:100AB0000ED11A1F126803681A43274B08331A60B5
:100AC0001A1D126803681A43234B0C331A600DE099
:100AD0002149427911440A6803681A430A6005E013
:100AE000027911440A6803689A430A60704700213A
:100AF000016001710C21417100218171704716491B
:100B0000103109680143144A1032116070470146E0
:100B10000020114A143212680A400AB1012000E094
:100B2000002070470C4914310860704701460020CE
:100B30000022094B1B6803EA0102074B14331B68B0
:100B40000B4013B10AB1012000E0002070470249B8
:100B5000143108607047000000040140FFFF0F00DF
:100B600001460020FE4A106800F03800084310607B
:100B70007047FB49096821F00801F94A11601146E4
:100B80000968014311607047F549096821F01001B7
:100B9000F34A116011460968014311607047F1483A
:100BA000EF494860F04848607047EE48EC494860BB
:100BB000ED4848607047EA48006940F08000E84925
:100BC00008617047E648006940F08000E449086128
:100BD00070470420E249C96801F0010109B1012010
:100BE0000EE0DF49C96801F0040109B1022007E005
:100BF000DB49C96801F0100109B1032000E00420BD
:100C0000704700B502460423FFF7E3FF034603E005
:100C1000FFF7DFFF0346521E012B01D1002AF7D157
:100C200002B90523184600BD30B5044604254FF42B
:100C30003020FFF7E6FF0546042D17D1C8480069AC
:100C400040F00200C649086108464461006940F06E
:100C5000400008614FF43020FFF7D3FF0546C0483D
:100C6000006941F6FD710840BD490861284630BD64
:100C700010B504244FF43020FFF7C3FF0446042CC2
:100C800016D1B748006940F00400B549086108462C
:100C9000006940F0400008614FF43020FFF7B1FFD9
:100CA0000446AF48006941F6FB710840AC49086151
:100CB000204610BD00B502460423FFF78AFF034615
:100CC00003E0FFF786FF0346521E012B01D1002AE5
:100CD000F7D102B90523184600BD10B504244FF41E
:100CE0003020FFF7E7FF0446042C16D19C4800692A
:100CF00040F004009A4908610846006940F040004D
:100D000008614FF43020FFF7D5FF0446944800698E
:100D100041F6FB71084092490861204610BD002051
:100D20008F49C96901F0020109B1012000E00020EA
:100D3000704730B5A5250424FFF7F1FF00B1002569
:100D40004FF43020FFF75DFF0446042C3AD185486C
:100D500083498860844888600846006940F0200024
:100D600008610846006940F0400008614FF43020F7
:100D7000FFF747FF0446042C1BD17948006941F670
:100D8000DF710840764908610846006940F01000AC
:100D9000086176480580E002FFF733FF0446052C22
:100DA00010D06F48006941F6EF7108406C49086146
:100DB00008E0052C06D06A48006941F6EF7108404A
:100DC00067490861204630BD78B506460C460425C3
:100DD00000200090E802FFF714FF0546042D24D1FF
:100DE0005F48006940F001005D4908613480E80215
:100DF000FFF707FF0546042D10D1B01C0090200C12
:100E000000990880E802FFF7FCFE05465448006997
:100E100041F6FE7108405249086106E050480069F9
:100E200041F6FE7108404E490861284678BD70B50C
:100E300004460D460426F002FFF7E3FE0646042EA4
:100E400011D14748006940F00100454908612580FB
:100E5000F002FFF7D6FE06464148006941F6FE71F2
:100E600008403F490861304670BD70B505460E46E2
:100E70000424E002FFF7C5FE0446042C17D13948CC
:100E800037498860384888600846006940F010009B
:100E900008612E80E002FFF7B4FE0446052C06D060
:100EA0002F48006941F6EF7108402D49086120463E
:100EB00070BD2DE9F04304464FF6FF763746B04645
:100EC000B1460425E443E6B2C4F30727C4F3074858
:100ED0004FEA1469E802FFF794FE0546042D49D154
:100EE00020481F498860204888600846006940F013
:100EF00010000861FF2E06D01C4808300680E8026A
:100F0000FFF77FFE0546042D08D1FF2F06D01748B6
:100F10000A300780E802FFF774FE0546042D0AD167
:100F2000B8F1FF0F07D011480C30A0F80080E8029C
:100F3000FFF767FE0546042D0AD1B9F1FF0F07D070
:100F40000A480E30A0F80090E802FFF75AFE054666
:100F5000052D0FD00248006941F6EF71084007E007
:100F60000020024023016745AB89EFCD00F8FF1F49
:100F7000664908612846BDE8F08330B5054604247B
:100F80004FF43020FFF73DFE0446042C41D1604869
:100F90005E4988605F4888600846006940F020002C
:100FA00008610846006940F0400008614FF43020B5
:100FB000FFF727FE0446042C22D15448006941F66D
:100FC000DF710840514908610846006940F010008F
:100FD00008611DB100205049088002E0A5204E495B
:100FE00008804FF43020FFF70CFE0446052C10D08B
:100FF0004648006941F6EF7108404449086108E03D
:10100000052C06D04148006941F6DF7108403F4990
:101010000861204630BDF0B505460E46174604244B
:101020003B483A4988603B488860E002FFF7E9FDA9
:101030000446042C19D13548006940F010003349AA
:10104000086147F0F800304328433349891C088081
:10105000E002FFF7D6FD0446052C06D02B480069B8
:1010600041F6EF710840294908612046F0BD274844
:10107000C069800870472548006A704700202349EE
:10108000096801F0200109B1012000E0002070474B
:1010900029B11E4A126902431C4B1A6104E01B4A23
:1010A00012698243194B1A617047014600200129D9
:1010B00008D1164AD26902F001020AB1012008E003
:1010C000002006E0114AD2680A400AB1012000E07F
:1010D000002070470D49C860704704200B49C9685B
:1010E00001F0010109B101200EE00849C96801F0D1
:1010F000040109B1022007E00449C96801F01001A8
:1011000009B1032000E004207047000000200240E5
:1011100023016745AB89EFCD00F8FF1F10B50446EA
:10112000CC48844208D10121042000F04DFB00216D
:10113000042000F049FB46E0C748844208D1012161
:10114000082000F041FB0021082000F03DFB3AE0C0
:10115000C248844208D10121102000F035FB002153
:10116000102000F031FB2EE0BD48844208D101215F
:10117000202000F029FB0021202000F025FB22E0A8
:10118000B848844208D10121402000F01DFB002115
:10119000402000F019FB16E0B348844208D1012139
:1011A000802000F011FB0021802000F00DFB0AE000
:1011B000AE48844207D10121801500F005FB0021D3
:1011C000A01500F001FB10BD10B50121084600F08C
:1011D000FBFA0021012000F0F7FA10BD2DE9F041E3
:1011E000024600250026002000230024002791F855
:1011F00003C00CF00F0591F803C00CF0100CBCF10B
:10120000000F03D091F802C04CEA050591F800C028
:10121000BCF1000F31D0146800202BE04FF0010C1E
:101220000CFA00F3B1F800C00CEA03069E4220D18C
:1012300083004FF00F0C0CFA03F7BC4305FA03FCD4
:101240004CEA040491F803C0BCF1280F06D14FF01A
:10125000010C0CFA00FCC2F814C00AE091F803C0BB
:10126000BCF1480F05D14FF0010C0CFA00FCC2F89C
:1012700010C0401C0828D1D31460B1F800C0BCF1E4
:10128000FF0F34DD546800202EE000F1080C4FF011
:10129000010808FA0CF3B1F800C00CEA03069E42FC
:1012A00021D183004FF00F0C0CFA03F7BC4305FA71
:1012B00003FC4CEA040491F803C0BCF1280F05D1EB
:1012C00000F1080C08FA0CF8C2F8148091F803C079
:1012D000BCF1480F07D100F1080C4FF0010808FAE3
:1012E0000CF8C2F81080401C0828CED35460BDE82A
:1012F000F0814FF6FF710180022181700421C170DD
:1013000070470246002093680B400BB1012000E0BB
:10131000002070470146886880B27047024600206E
:10132000D3680B400BB1012000E00020704701465C
:10133000C86880B2704701617047416170470AB167
:10134000016100E041617047C16070474FF4803235
:101350000A438261816182618269826970470246C3
:101360000020434B18684FF68073184040EA021083
:1013700008433F4B186070473E49C8617047F0B55D
:101380000A46002300240021002500F00046B6F1A3
:10139000004F02D1364EF16901E0354E7168C0F35D
:1013A000034583B200F44016B6F5401F08D121F082
:1013B00070612F4E766826F070662D4F7E6012E0C9
:1013C00000F48016B6F5801F06D1032606FA05F450
:1013D000A14341F0706106E0460D360103FA06F6BE
:1013E000B14341F0706122B1460D360103FA06F6B1
:1013F000314300F00046B6F1004F02D11C4EF161BE
:1014000001E01B4E7160F0BD30B500228B071C0F50
:101410000F2303FA04F2164B08338C1053F82430D0
:101420009343134C08348D1044F8253023468C1018
:1014300053F824308C07240F00FA04F423430C4C97
:1014400008348D1044F8253030BD0A49DC3108607D
:101450007047000000080140000C014000100140EE
:101460000014014000180140001C01400020014010
:1014700000000140000020420E49086070470D49FD
:10148000486070470B49886070474AF6AA200949AE
:10149000086070474CF6CC4006490860704701462A
:1014A0000020044AD2680A400AB1012000E000206E
:1014B0007047000000300040DF48006840F0010045
:1014C000DD49086008464068DC490840DA49486060
:1014D00008460068DA490840D749086008460068AD
:1014E00020F4802008600846406820F4FE00486030
:1014F0004FF41F0088607047CF49096821F480319C
:10150000CD4A11601146096821F480211160B0F5BF
:10151000803F03D0B0F5802F0ED106E0C6490968A0
:1015200041F48031C44A116007E0C349096841F4BD
:10153000A021C14A116000E000BF00BF704710B594
:1015400001460022002300204A11012A02D1BA4C90
:10155000236806E0022A02D1B74C236A01E0B64CA8
:10156000636A01F01F02012494401C400CB1012069
:1015700000E0002010BD38B50020009000240025B8
:1015800000BF3120FFF7DBFF05460098401C0090AC
:101590000098B0F5A06F01D0002DF2D03120FFF7F8
:1015A000CEFF08B1012400E00024204638BD0146EA
:1015B0000020A14A106820F0F80040EAC100106045
:1015C0007047A04908607047024600209A4B58684F
:1015D00020F47C1042EA01031843974B586070478F
:1015E00098490866704701460020934A506820F0E9
:1015F00003000843506070478F48406800F00C00BB
:101600007047014600208C4A506820F0F0000843E3
:101610005060704701460020874A506820F4E0601F
:1016200008435060704701460020834A506820F408
:10163000605040EAC1005060704729B17E4A527A3A
:1016400002437D4B5A7204E07B4A527A82437A4BC2
:101650005A7270477B49D8310860704701460020B4
:10166000754A506820F4404008435060704700219C
:10167000714A20321170704A82F82010012802D07D
:1016800004280AD104E001216B4A2032117005E0E0
:101690000521694A2032117000E000BF00BF704789
:1016A0006949086070476449096A0143624A1162E6
:1016B0007047654944390860704730B50021002201
:1016C000002400235C4D6D6805F00C0121B1042954
:1016D00005D0082923D105E05C4D056022E05B4D73
:1016E00005601FE0544D6D6805F47012524D6D6831
:1016F00005F48034022505EB92421CB9544D554344
:1017000005600BE04C4D6D6805F400351DB1504D82
:101710005543056002E04D4D5543056002E04B4DD9
:10172000056000BF00BF444D6D6805F0F001090978
:10173000484D6B5C0568DD4045603F4D6D6805F4C4
:10174000E061090A434D6B5C4568DD4085603A4DB8
:101750006D6805F46051C90A3E4D6B5C4568DD401B
:10176000C560354D6D6805F44041890B3A4D6B5CA1
:10177000C568B5FBF3F5056130BD29B12E4A526944
:1017800002432D4B5A6104E02B4A526982432A4B93
:101790005A61704729B1284A92690243264B9A61DF
:1017A00004E0254A92698243234B9A61704729B12C
:1017B000214AD2690243204BDA6104E01E4AD26911
:1017C00082431D4BDA61704729B11B4AD26802433C
:1017D000194BDA6004E0184AD2688243164BDA608B
:1017E000704729B1144A12690243134B1A6104E08D
:1017F000114A12698243104B1A61704712494039ED
:10180000086070470F49C86470470B49C87170473A
:101810000948406A40F080700749486270470146B5
:101820000020054A92680A400AB1012000E0002029
:101830007047014988727047001002400000FFF8AD
:10184000FFFFF6FE000042428004424200127A008E
:1018500000093D00000000201000002010B50446E3
:10186000FE48844208D10121C014FFF7ADFF0021DA
:10187000E014FFF7A9FFC4E0B4F1804F08D10121C3
:101880000846FFF7AEFF00210120FFF7AAFFB8E0EE
:10189000F348844208D101210220FFF7A2FF002172
:1018A0000220FFF79EFFACE0EE48844208D1012100
:1018B0000420FFF796FF00210420FFF792FFA0E02D
:1018C000E948844208D101210820FFF78AFF00215E
:1018D0000820FFF786FF94E0E448844208D1012104
:1018E0001020FFF77EFF00211020FFF77AFF88E02D
:1018F000DF48844208D101212020FFF772FF002138
:101900002020FFF76EFF7CE0DA48844208D10121F5
:101910004014FFF759FF00216014FFF755FF70E0F6
:10192000D548844209D10121C804FFF74DFF0021A9
:101930004FF40020FFF748FF63E0D048844209D10C
:1019400001210805FFF740FF00214FF48010FFF749
:101950003BFF56E0CA48844209D101214805FFF700
:1019600033FF00214FF40010FFF72EFF49E0C54878
:10197000844208D101214020FFF733FF002140209D
:10198000FFF72FFF3DE0C048844208D101218020AD
:10199000FFF727FF00218020FFF723FF31E0BB483E
:1019A000844208D101218015FFF71BFF0021A015FB
:1019B000FFF717FF25E0B648844209D1012108044A
:1019C000FFF702FF00214FF48030FFF7FDFE18E023
:1019D000B048844209D101214804FFF7F5FE0021F7
:1019E0004FF40030FFF7F0FE0BE0AB48844208D123
:1019F00001218804FFF7E8FE00214FF48020FFF763
:101A0000E3FE10BD00220288944B98420ED0994B01
:101A100098420BD0B0F1804F08D0914B984205D03E
:101A2000904B984202D0904B984204D14FF68F735E
:101A30001A404B881A438D4B984207D08C4B9842E2
:101A400004D04FF6FF431A40CB881A4302808B889C
:101A500083850B880385814B98420BD0854B984238
:101A600008D08B4B984205D08A4B984202D08A4BC3
:101A7000984201D10B7A038601238382704770B5A7
:101A8000002400220023058C4FF6FE7635400584A5
:101A9000028C8388048B4FF68F752C40B51E2C402A
:101AA0000D882C43751E2A400D892A434D882A43F0
:101AB0006A4DA8420BD06F4DA84208D0744DA84281
:101AC00005D0744DA84202D0734DA84213D14FF6F1
:101AD000F7752A404D892A434FF6FB752A408D88B9
:101AE0002A434FF6FF652B404FF6FF552B408D895B
:101AF0002B43CD892B4383800483CD888586028444
:101B000070BD70B5002400220023058C4FF6EF76DF
:101B100035400584028C8388048B48F6FF752C4081
:101B20004FF6FF452C400D884FF6FF7606EA052557
:101B30002C434FF6DF752A400D8906EA05152A4326
:101B40004D8806EA05152A43444DA84202D0494D66
:101B5000A8421DD14FF67F752A404D894FF6FF767A
:101B600006EA05152A434FF6BF752A408D8806EA16
:101B700005152A434FF6FF352B404FF2FF752B40DA
:101B80008D8906EA85052B43CD8906EA85052B4319
:101B900083800483CD880587028470BD70B50024DE
:101BA00000220023058C4FF6FF6635400584028C29
:101BB0008388848B4FF68F752C404FF6FC752C4034
:101BC0000D882C434FF6FF552A400D894FF6FF76BE
:101BD00006EA05252A434D8806EA05252A431F4DB6
:101BE000A84202D0234DA8421DD14FF2FF752A40D2
:101BF0004D894FF6FF7606EA05252A434FF6FF3555
:101C00002A408D8806EA05252A434EF6FF752B40AB
:101C10004DF6FF752B408D8906EA05152B43CD89BE
:101C200006EA05152B4383808483CD88858702844B
:101C300070BD70B5002200230024058C4EF6FF769F
:101C400035400584038C8488828B48F6FF752A40D2
:101C50004FF6FF452A400D8820E00000002C01408F
:101C60000004004000080040000C0040001000404C
:101C70000014004000340140004C0140005001407D
:101C80000054014000180040001C004000200040AB
:101C90000040014000440140004801404FF6FF76FB
:101CA00006EA05252A434DF6FF752B400D8906EA05
:101CB00005352B434D8806EA05352B43FA4DA842DE
:101CC00002D0FA4DA84208D14BF6FF752C408D8901
:101CD0004FF6FF7606EA85152C4384808283CD88F3
:101CE000A0F84050038470BD828B4FF2FF331A403E
:101CF0008283828B4FF6FF7303EA01231A438283A8
:101D00007047F0B50C461546002200210026078CCE
:101D10004EF6FF7C07EA0C070784828B018C4FF696
:101D2000FF7707EA043640F6FF473A404FF6FF7761
:101D300007EA05273A434FF6FF7707EA03373A43A6
:101D4000D94FB8420ED0D94FB8420BD0B0F1804F26
:101D500008D0D74FB84205D0D64FB84202D0D64FA0
:101D6000B84206D14DF6FF77394046F480573943E3
:101D700005E047F6FF57394044F4805739438283E2
:101D80000184F0BD828B4FF6F3731A408283828BFD
:101D90000A4382837047F0B50C46154600220021A5
:101DA0000026078C4FF6FF6C07EA0C070784828B2E
:101DB000018C4FF6FF7707EA04264FF60C773A407E
:101DC0004FF6FF7707EA03172F433A43B64FB8425F
:101DD0000ED0B64FB8420BD0B0F1804F08D0B44F00
:101DE000B84205D0B34FB84202D0B34FB84206D183
:101DF0004FF6FF57394046F48077394305E04FF2FC
:101E0000FF57394044F48077394382830184F0BD21
:101E1000028B4FF2FF331A400283028B4FF6FF739F
:101E200003EA01231A4302837047F0B50C461546B6
:101E3000002200210026078C4FF6EF7C07EA0C07F2
:101E40000784028B018C4FF6FF7707EA041640F6F1
:101E5000FF473A404FF6FF7707EA03373A434FF61A
:101E6000FF7707EA05273A438F4FB8420ED08F4FCE
:101E7000B8420BD0B0F1804F08D08D4FB84205D09A
:101E80008C4FB84202D08C4FB84206D14FF6DF7764
:101E9000394046F01007394305E04FF65F77394087
:101EA00044F01007394302830184F0BD028B4FF6E2
:101EB000F3731A400283028B0A4302837047F0B522
:101EC0000C46154600220021068C4FF6FE773E4058
:101ED0000684028B018C4FF60C7632407E1C06EA9B
:101EE00003162E433243704EB0420ED06F4EB042B6
:101EF0000BD0B0F1804F08D06D4EB04205D06D4E82
:101F0000B04202D06C4EB04206D14FF6FD76314061
:101F100044F00106314305E04FF6F576314044F0D8
:101F20000106314302830184F0BD70B505460C46BD
:101F30005D4885420ED05D4885420BD0B5F1804F9B
:101F400008D05B48854205D05A48854202D05A489D
:101F5000854200D100E000BF208850B92389A288C3
:101F600061882846FFF7ABFFE1882846FFF79EFF10
:101F700025E0208804280AD12389A2886188284680
:101F8000FFF753FFE1882846FFF742FF17E020885C
:101F900008280AD12389A28861882846FFF7FBFE1A
:101FA000E1882846FFF7EEFE09E02389A2886188D0
:101FB0002846FFF7A6FEE1882846FFF795FE70BD8C
:101FC0002DE9F04105460C4600260127608808B936
:101FD000022600E00026A088012801D1022700E0A7
:101FE00001272088A0B92389A28861882846FFF7A5
:101FF00066FFE1882846FFF759FF23893A463146B4
:102000002846FFF712FFE1882846FFF701FF13E09B
:102010002389A28861882846FFF707FFE1882846C0
:10202000FFF7F6FE23893A4631462846FFF747FF79
:10203000E1882846FFF73AFFBDE8F0810A884B881F
:102040001A438B881A43CB881A430B891A434B894E
:102050001A438B891A43A0F8442070474FF6FF714A
:10206000818000210180C180418001727047002180
:10207000018041808180C180018141818181C18154
:102080007047002101804180012181800021C180B1
:10209000018170470021018041808180C1800181E0
:1020A0004181818170470000002C014000340140D3
:1020B0000004004000080040000C004021B10288EC
:1020C00042F00102028004E002884FF6FE731A40DB
:1020D0000280704731B1B0F8442042F40042A0F8C9
:1020E000442005E0B0F84420C2F30E02A0F84420DA
:1020F00070471AB183890B43838102E083898B4344
:10210000838170478182704741EA0203A0F848301A
:1021100070471AB183890B43838102E083898B4323
:102120008381704701894FF6F87211400181704731
:102130000A46002101894FF68F731940114301812E
:10214000704730B504460D4629462046FFF7F0FF9C
:10215000208940F00700208130BD2DE9F041044680
:102160000D4616461F46602D06D13B4601223146DC
:102170002046FFF75AFE05E03B4601223146204645
:10218000FFF79DFE29462046FFF7D2FF208940F049
:1021900007002081BDE8F08130B50C46002101899F
:1021A000C9B24FF6FF7505EA0325154325432943B8
:1021B000018130BD2DE9F04105460E46174698468F
:1021C000002443463A4631462846FFF7E5FF2C896E
:1021D0004FF6F870044044F007044FF68F70044047
:1021E00044F070042C81BDE8F081F0B504460D4642
:1021F00016461F463B46324629462046FFF7CCFF8F
:10220000208940F480402081F0BD018582827047A2
:102210000A46002101884FF68F731940114301804F
:102220007047F0B50C4615461E46002100220023DB
:102230000189028B038C4FF6F877394021434FF622
:10224000FC473A4040F201173A434FF6DD773B40F6
:102250004FF6FF7707EA06172F433B4301810283BE
:102260000384F0BD0A460021018B4FF68F7319409D
:102270001143018370470A460021018B48F6FF7322
:1022800019404FF6FF7303EA022319430183704795
:102290000A460021818B4FF68F73194011438183C9
:1022A00070470A460021818B48F6FF7319404FF6AC
:1022B000FF7303EA022319438183704721B1028827
:1022C00042F08002028004E002884FF67F731A40D9
:1022D0000280704721B1828842F00402828004E0CB
:1022E00082884FF6FB731A408280704721B1828842
:1022F00042F00802828004E082884FF6F7731A40A9
:102300008280704721B1828842F00102828004E01D
:1023100082884FF6FE731A40828070470A46002179
:10232000018B4FF6F77319401143018370470A463A
:102330000021018B4FF2FF7319404FF6FF7303EA40
:1023400002231943018370470A460021818B4FF60F
:10235000F77319401143818370470A460021818B2E
:102360004FF2FF7319404FF6FF7303EA022319433C
:10237000818370470A460021018B4FF6FB73194099
:102380001143018370470A460021018B4FF6FF334A
:1023900019404FF6FF7303EA022319430183704784
:1023A0000A460021818B4FF6FB731940114381834C
:1023B00070470A460021818B4FF6FF3319404FF6D4
:1023C000FF7303EA02231943818370470A46002101
:1023D000018B4FF67F7319401143018370470A4602
:1023E0000021018BC1F30E014FF6FF7303EA0223B4
:1023F0001943018370470A460021818B4FF67F7392
:1024000019401143818370470A460021818BC1F333
:102410000E014FF6FF7303EA0223194381837047CD
:102420000A460021018C4FF6FD73194011430184C7
:1024300070470A460021018C4FF6F773194011438B
:10244000018470470A460021018C4FF6DF73194062
:102450004FF6FF7303EA02131943018470470A46DB
:102460000021018C4FF67F7319404FF6FF7303EA8A
:1024700002131943018470470A460021018C4FF66C
:10248000FF5319404FF6FF7303EA022319430184F7
:1024900070470A460021018C4FF2FF7319404FF636
:1024A000FF7303EA02231943018470470A4600219F
:1024B000018C4DF6FF7319404FF6FF7303EA0233A8
:1024C00019430184704730B5002301248C40A3B226
:1024D000048C9C430484048C02FA01F5ADB22C43B5
:1024E000048430BD30B5002304248C40A3B2048C96
:1024F0009C430484048C02FA01F5ADB22C4304849D
:1025000030BD70B503460020002418461830012560
:102510008D40ACB21D8CA5431D8409B1082909D199
:1025200000EB6100056825F070050560056815433E
:1025300005600EE00D1FC5F34E052844056825F41F
:10254000E045056005684FF6FF7606EA022635434A
:10255000056070BD21B1028842F00202028004E0F1
:1025600002884FF6FD731A400280704721B102883D
:1025700042F00402028004E002884FF6FB731A4026
:102580000280704721B1828842F08002828004E09C
:1025900082884FF67F731A408280704702884FF618
:1025A000F7731A40028002880A43028070478288CB
:1025B0004FF68F731A40828082880A438280704768
:1025C00002894FF6F8731A40028102890A43028198
:1025D000704702894FF67F731A40028102890A43CD
:1025E000028170478184704781857047818670477A
:1025F0000187704781877047A0F8401070470288B4
:102600004FF6FF431A40028002880A430280704757
:102610000146888E70470146088F70470146888FB3
:1026200070470146B1F8400070470146888C7047FA
:102630000146088D704702460020138A0B400BB1FB
:10264000012000E000207047CA430282704730B585
:102650000246002000230024158A05EA010395891B
:1026600005EA010413B10CB1012000E0002030BDE7
:10267000CA4302827047000010B50446FB488442FA
:1026800009D101218803FFF79FF800214FF4804012
:10269000FFF79AF832E0F648844209D10121480454
:1026A000FFF79FF800214FF40030FFF79AF825E07C
:1026B000F048844209D101218804FFF792F80021F3
:1026C0004FF48020FFF78DF818E0EB48844209D1E1
:1026D0000121C804FFF785F800214FF40020FFF71F
:1026E00080F80BE0E548844208D101210805FFF796
:1026F00078F800214FF48010FFF773F810BD2DE932
:10270000F04786B005460E460024A24600BFA1460B
:102710000027B08900B100BF2F462C8A4CF6FF700D
:102720000440F08804432C82AC894EF6F310044038
:10273000B08831890843718908430443AC81AC8A6D
:102740004FF6FF400440B0890443AC8201A8FEF775
:10275000B4FFC648874202D1DDF810A001E0DDF8E1
:102760000CA0A88900F4004040B10AEBCA0000EBBD
:102770000A1031684900B0FBF1F807E00AEBCA0023
:1027800000EB0A1031688900B0FBF1F86420B8FB57
:10279000F0F004012009642101FB1089A88900F4EC
:1027A000004040B1322000EBC900B0FBF1F000F076
:1027B0000700044308E0322000EB09106421B0FB5D
:1027C000F1F000F00F0004432C8106B0BDE8F08763
:1027D0004FF41651016000218180C18001810C21DC
:1027E000418100218181704710B502460020108A86
:1027F0004FF2FF0318400B884C8823438C882343F7
:10280000CC8823431843108210BD002101804180F1
:102810008180C180704721B1828942F40052828157
:1028200004E082894DF6FF731A4082817047F0B54B
:102830000346002400260025002040F66A17B9420E
:1028400000D100BF1846C1F3421401F01F06012752
:1028500007FA06F5012C01D10C3004E0022C01D15D
:10286000103000E014301AB107682F43076002E00F
:102870000768AF430760F0BD1AB1838A0B438382B8
:1028800002E0838A8B4383827047028A4FF6F0739B
:102890001A400282028A0A430282704782894FF2FA
:1028A000FF731A40828182890A438281704721B175
:1028B000828942F00202828104E082894FF6FD7330
:1028C0001A4082817047028A4FF6DF731A400282F3
:1028D000028A0A430282704721B1028A42F480428E
:1028E000028204E0028A4BF6FF731A4002827047AC
:1028F000C1F308028280704701468888C0F308004F
:102900007047818941F0010181817047028BD2B209
:102910000283028B42EA012202837047028B02F497
:102920007F420283028B0A430283704721B1828A6D
:1029300042F02002828204E0828A4FF6DF731A405E
:102940008282704721B1828A42F01002828204E0C2
:10295000828A4FF6EF731A408282704721B1828AD1
:1029600042F00802828204E0828A4FF6F7731A402E
:102970008282704721B1828942F40042828103E061
:102980008289C2F30E028281704721B1828A42F4A9
:102990000062828204E0828A4FF2FF731A408282D0
:1029A0007047828A4FF6FB731A408282828A0A43FA
:1029B0008282704721B1828A42F00202828204E060
:1029C000828A4FF6FD731A408282704702460020C9
:1029D000B1F5007F00D100BF13880B400BB101207F
:1029E00000E00020704701F40072B2F5007F00D1D2
:1029F00000BFCA430280704770B50246002400231E
:102A00000025002040F66A16B14200D100BFC1F394
:102A1000421501F01F03012606FA03F3012D02D12E
:102A20009689334006E0022D02D1168A334001E038
:102A3000968A33400C12012606FA04F416883440B4
:102A400013B10CB1012000E0002070BD10B50022D0
:102A5000002340F66A14A14200D100BF0A120124EB
:102A60009440A3B2DC43048010BD00000038014054
:102A70000044004000480040004C0040005000402E
:102A8000014600BF704700BFFE4A128802F04002B4
:102A9000002AF9D0C2B2FB4B1B1D1A80704710B53B
:102AA00040F22551F748FFF7A7FFE8B1F548FFF7D7
:102AB00023FFC4B2F4480088C82810DA0020F34984
:102AC0000870F148008810B90120F1490870EE48FB
:102AD00001880088401CEC4A1080EE48445440F2C3
:102AE0002551E848FFF7B2FF10BD10B540F225515F
:102AF000E948FFF781FFF0B1E748FFF7FDFEC4B2F8
:102B0000E6480088B0F5167F10DA0020E449087026
:102B1000E248008810B90120E2490870DF480188C6
:102B20000088401CDD4A1080DF48445440F22551A3
:102B3000D948FFF78BFF10BD10B586B004460121C0
:102B400044F20400FEF726FECE48FFF795FD4FF451
:102B50000070ADF8140003208DF8160018208DF8D1
:102B6000170005A9D148FEF739FB4FF48060ADF896
:102B7000140004208DF8170005A9CC48FEF72EFBA1
:102B800001940020ADF80800ADF80A00ADF80C0083
:102B9000ADF810000C20ADF80E0001A9B948FFF700
:102BA000AEFD25208DF8000003208DF801008DF882
:102BB000020001208DF803006846FDF788FB012222
:102BC00040F22551AF48FFF732FE0121AD48FFF733
:102BD00022FE06B010BD10B586B0044601210820C3
:102BE000FEF7D8FD01218804FEF7E1FDAA48FFF7B2
:102BF00043FD4FF48060ADF8140003208DF81600FB
:102C000018208DF8170005A9A948FEF7E7FA4FF438
:102C10000060ADF8140004208DF8170005A9A44841
:102C2000FEF7DCFA01940020ADF80800ADF80A00C8
:102C3000ADF80C00ADF810000C20ADF80E0001A9A5
:102C40009548FFF75CFD27208DF8000002208DF8E5
:102C500001008DF8020001208DF803006846FDF7A1
:102C600036FB012240F225518B48FFF7E0FD0121A0
:102C70008948FFF7D0FD06B010BD30B5034618787F
:102C800008B1087808B9002030BD07E013F8014BFF
:102C900011F8015BAC4201D00020F5E71000A2F171
:102CA0000104E2B2F2D10120EEE7F0B500240025E4
:102CB00004E0465D2644B4B26E1CF5B28D42F8DBEA
:102CC000E4B22309092B03DC03F13006F3B202E07E
:102CD00003F13706F3B204F00F02092A03DC02F114
:102CE0003006F2B202E002F13706F2B20E464F1C95
:102CF000F9B283550E464F1CF9B282554FF0000CC5
:102D00000E464F1CF9B200F806C0F0BD0FB410B566
:102D100096B0002419A80190502102A8019B189A8E
:102D200004F04CFC0EE02046621CD4B202AA115CF6
:102D30005948FFF7DDFD00BF80215748FFF746FEE9
:102D40000028F9D0502C03DA02A8005D0028EAD14F
:102D50000020019016B010BC5DF814FB10B54A4875
:102D6000008800F4004000287DD0042251A1494889
:102D7000FFF783FF20B347488079303842F2107163
:102D800048434449C979303901EB4102C2EBC111D2
:102D900000EBC1013F48007A303800EBC00202EB83
:102DA000001001EB80013B48807A303800EB800056
:102DB00001EB40013748C07A303808443F49088069
:102DC0000C223FA13348FFF758FF28B101204049AA
:102DD000087040A0FFF79AFF0C2244A12D48FFF78E
:102DE0004CFF28B100203A49087044A0FFF78EFF3D
:102DF0000C2248A12748FFF740FF28B1012049498C
:102E0000087049A0FFF782FF0C224DA12148FFF76F
:102E100034FF28B10020434908704DA0FFF776FF2A
:102E20000C2251A11B48FFF728FF28B1012052496D
:102E3000087052A0FFF76AFF0C2256A11548FFF751
:102E40001CFF28B100204C49087056A0FFF75EFF18
:102E50000C225AA10F48FFF710FF38B101205B493F
:102E600008705BA000E0CDE0FFF750FF0C225EA1F0
:102E70000848FFF702FF18B1002054490870BBE072
:102E8000BDE0000000380140180000201B000020B9
:102E90001A000020D4040020004800401C0000203C
:102EA0001F0000201E000020000600200008014036
:102EB000000C01402A524656000000002600002067
:102EC0004341505F5377697463683D3100000000EF
:102ED000200000204341505F5377697463683D319F
:102EE00020534554204F4B210A0000004341505FBE
:102EF0005377697463683D30000000004341505FC0
:102F00005377697463683D3020534554204F4B21FB
:102F10000A00000047534D5F496E664F75743D319E
:102F2000000000002200002047534D5F496E664FAD
:102F300075743D3120534554204F4B210A00000049
:102F400047534D5F496E664F75743D300000000079
:102F500047534D5F496E664F75743D30205345545D
:102F6000204F4B210A0000004750535F496E664FC7
:102F700075743D3100000000230000204750535F6E
:102F8000496E664F75743D3120534554204F4B2197
:102F90000A0000004750535F496E664F75743D301C
:102FA000000000004750535F496E664F75743D3016
:102FB00020534554204F4B210A00000054454D5FDB
:102FC000496E664F75743D310000000024000020FA
:102FD00054454D5F496E664F75743D3120534554DD
:102FE000204F4B210A00000054454D5F496E664F4B
:102FF00075743D30000000001DA0FFF787FE002023
:10300000214908802148008800F4004070B3042260
:10301000AFF260111E48FFF730FE20B31C488079E4
:10302000303842F2107148431949C979303901EBFF
:103030004102C2EBC11100EBC1011548007A3038E2
:1030400000EBC00202EB001001EB80011048807A17
:10305000303800EB800001EB40010D48C07A303879
:1030600008440C49088000200849088010BD000071
:1030700054454D5F496E664F75743D30205345543D
:10308000204F4B210A000000180000201C000020E7
:103090000006002028000020002204E00023037026
:1030A000401C531CDAB28A42F8DB70471CB50B2176
:1030B000C348FFF7F1FF1021C248FFF7EDFF0521DC
:1030C000C148FFF7E9FF2622C049C14802F0DAFDF6
:1030D000BE4880880090BD4843880288BDA1B8489A
:1030E00004F092FAB9488089B8494989CDE90010BD
:1030F000B6480389C288BBA1B24804F085FAB34838
:10310000C289BBA1B04804F07FFAAD49BAA0FFF76D
:10311000FDFDAC49B8A0FFF7F9FDAB49B6A0FFF73C
:10312000F5FD1CBD002204E030230370401C531C3D
:10313000DAB28A42F8DB704710B50020B049088047
:103140005620B04981F865000A21AE482A30FFF7C1
:10315000E9FF0621AB485930FFF7E4FF0E21A948EB
:103160000E30FFF7DFFF0E21A648FFF7DBFF082137
:10317000A4485130FFF7D6FF0821A2484930FFF795
:10318000D1FF0A219F481C30FFF7CCFF26228F4930
:103190008F4802F077FD8D48408C76281AD0762033
:1031A0008A4948844FF47A7008800220488042207F
:1031B00088807820C88018200881442048815F20BA
:1031C000888141F63D30C8813C20088201208884F6
:1031D00002F0F6FD26227D497D4802F053FDFFF7FF
:1031E00065FF894804F021F910BD02468A4201D9E1
:1031F000501A7047881AFCE72DE9F04F85B000247B
:103200000025002004900390804600BF6F49488A43
:1032100008F054F904466D49888A08F04FF90546CC
:103220007A48006808F04AF903907948006808F085
:1032300045F9804677480078B8B17749204608F0CC
:1032400063F8834607F0C6FF81468A4672492846DE
:1032500008F05AF8834607F0BDFF064632460B4693
:103260006EA0CDE9009AFFF751FD2946039808F0BA
:1032700039F900D203952946404608F033F900D2C7
:10328000A8462146039808F02DFA00D2039421465F
:10329000404608F027FA00D2A0462946204608F00A
:1032A00053FA81464FF0804108F050F9064629460E
:1032B0004FF0804008F04AF981464146039807F0F4
:1032C000B5FF8246494608F03FFA0746314608F006
:1032D0001BF804904F48007840B1049807F07AFF3B
:1032E000064632460B4655A0FFF710FD049807F03E
:1032F00071FF0646544A554B07F05AFD1DD8294622
:10330000204608F021FA4FF08041009008F01EF9A5
:1033100029460290404608F017FA0190029907F0FA
:10332000F3FF834607F056FF06460022484B07F09E
:103330002DF9814607F0F8F80490049807F04AFF49
:103340000646444A444B07F033FD1BD2049807F06D
:1033500041FF0646414A424B07F0F0FB12D2294694
:10336000204608F0F1F981464FF0804108F0EEF870
:1033700006462946039808F0E7F90746314607F064
:10338000C3FF0490049807F025FF0646354A364BE4
:1033900007F0D4FB01D800200490049807F01AFF2E
:1033A0000646324A324B07F003FD02D24FF07E5000
:1033B0000490049805B0BDE8F08F70477047000096
:1033C000500000205B0000206B0000205808002007
:1033D00080F9000825342E346425342E34642532D7
:1033E0002E32640025642E25642E25642E2564006B
:1033F00025342E346400000025730D0A00000000FF
:1034000096040020C9080020941100203C000020F0
:1034100040000020210000200000C8424D696E439A
:1034200061703D252E326670462C204D61784361D7
:10343000703D252E326670460A00000074656D707E
:103440003D25660A00000000A4703D0AD7A3E03FB6
:103450000000E03F7B14AE47E17AC43FB81E85EB25
:1034600051B8DE3FFCA9F1D24D62503F2B8716D9EF
:10347000CEF7EF3F10B53748006840F004003549FB
:1034800008603548C06940F080503349C86133480E
:10349000406840F48070314948600846006840F058
:1034A000040008600846006840F002000860FCF76D
:1034B000E2FE10BD10B52748006840F00400254921
:1034C00008602548C06940F080502349C8612348FE
:1034D000006820F00100214908600846006820F0DB
:1034E00002000860FCF7C7FE10BD10B5194800685F
:1034F00020F00400174908600846006820F0020028
:103500000860FCF7B8FE10BD10B51248006820F046
:103510000400104908600846006840F00200086096
:10352000FCF7A9FE10BD00BF0A48001F006800F4A8
:10353000E0600B490843001D0649091F0860BFF3FE
:10354000408F00BF00BFFEE710B54FF4A060FCF74E
:10355000B9FE10BD10ED00E0001002400070004008
:103560000000FA0510B504466FF00400FCF7F9FE00
:10357000E11704EB5171C1F3C7012B4A11701046DA
:10358000007800EB4001C1EBC0104FF6FF7101EA7B
:10359000C0002649088010BD0146234A12784A43DC
:1035A0004FF0E0235A6100229A611A46126942F0F4
:1035B00001021A6100BF4FF0E022106900F0010221
:1035C0001AB100F48032002AF5D04FF0E0221269DF
:1035D00022F001024FF0E0231A6100229A61704745
:1035E0000146124A12884A434FF0E0235A610022F2
:1035F0009A611A46126942F001021A6100BF4FF047
:10360000E022106900F001021AB100F48032002AB1
:10361000F5D04FF0E022126922F001024FF0E023D2
:103620001A6100229A617047700000207200002029
:1036300010B5FE48006820F07040FC49086008465C
:10364000006840F0405008600020F949086040F2EE
:10365000EE20FFF7A1FF0120F649C1F89C010F20E1
:10366000FFF79AFF10BD10B50024F048006820F065
:103670007040EE4908600846006840F0004008606D
:1036800004E0601CC4B20120FFF786FFE8488038E0
:10369000006808B1C82CF4DBC82C01DB012010BD88
:1036A000002404E0601CC4B20120FFF775FFE0486D
:1036B0008038006808B9F02CF4DBF02C01DB012025
:1036C000EDE70020EBE710B5D848006820F0704027
:1036D000D64908600846006840F040500860002065
:1036E000D34908600220FFF757FF0120D149C1F8F4
:1036F0009C01CE48006820F07040CC490860084624
:10370000006840F0004008600C20FFF745FFC84803
:103710008038006808B1012400E000243220FFF75F
:103720003BFF204610BD70B50026012508E0FFF7DD
:10373000CAFF0446E00140EA6600C6B2681CC5B292
:10374000082DF4DD304670BD70B50446B7480068FA
:1037500020F07040B54908600846006840F04050CD
:10376000086004F001056DB10020B1490860022035
:10377000FFF712FF0120AF49C1F89C013C20FFF781
:103780000BFF0CE00020AA4908603C20FFF704FF73
:103790000120A849C1F89C010220FFF7FDFE052089
:1037A000FFF7FAFE70BD70B50446A048006820F02F
:1037B00070409E4908600846006840F0405008602C
:1037C000012520E004F0010664106EB10020984944
:1037D00008600220FFF7E0FE01209649C1F89C0135
:1037E0003C20FFF7D9FE0CE00020914908603C2006
:1037F000FFF7D2FE01208F49C1F89C010220FFF79C
:10380000CBFE681CC5B2082DDCDD70BD10B5FFF71E
:103810000FFFFFF728FFCC20FFF7C5FF4420FFF77D
:10382000C2FF10BD08B501210820FDF7B3FF8020BD
:10383000ADF8000010208DF8030003208DF8020081
:1038400069467A48FDF7CAFC80217848FDF773FD88
:10385000FFF7EEFE002008BD2DE9F84FFFF7D6FF79
:10386000FFF7E6FEFFF7FFFECC20FFF79CFFBE2030
:10387000FFF799FFFFF757FF8346FFF754FF044612
:10388000072C08DDE043C4B26FEA0B0000F0FF0B29
:103890004FF0000A01E04FF0010AA1464FEA09206B
:1038A0000FFA80F909EB0B000FFA80F9484607F090
:1038B000EDFD009007F08EFC074600225E4B07F0FE
:1038C00079F9054607F0B2F80FFA80F9BAF1000F5E
:1038D00002D04846BDE8F88FC9F1000000B2F9E710
:1038E00070B50024002508E06006040EFFF7EBFE2B
:1038F00008B144F00104681CC5B2022DF4DB204677
:1039000070BD2DE9F04F93B08346022012904FF026
:10391000000A002600BFFFF78BFEFFF7A4FE1290FF
:1039200046A0129903F064FEF020FFF73CFF00244C
:103930006FE04FF00008002563E0FFF7D1FF8146FC
:1039400009F003094FEA6808B9F1010F08D1002016
:10395000FFF7FAFE002005EBC40101AA50544EE027
:10396000B9F1020F0AD148F080080120FFF7ECFE00
:10397000012005EBC40101AA505440E0B9F1000F49
:1039800039D105EBC400401CC7B211A8805DB84214
:103990000DDA0020FFF7D8FE002005EBC40101AAD4
:1039A0005054701CC0B2064611A90F5427E011A84C
:1039B000805DB8420EDD05EBC40001A9085C00F093
:1039C000010048EAC01805EBC40101AA505CFFF7EA
:1039D000BBFE14E011A8805DB84210D148F0800809
:1039E0000120FFF7B1FE012005EBC40101AA5054EC
:1039F000701EC6B203E0504613B0BDE8F08F681CDD
:103A0000C5B2082D99DB0BEBCA0000F80480601CDE
:103A1000C4B2082C8DDB0AF1010000F0FF0A11A8E6
:103A2000805D88B1BAF1020F0CE00000000C01408B
:103A30009C812142008021420000E43F25640A204D
:103A400000000000FFF667AF5046D5E72DE9FF5FA5
:103A500080464FF0000900250027FFF7E9FDFFF73A
:103A600002FE8146B9F1000F03D0002004B0BDE88A
:103A7000F09F5520FFF797FE002405E018F804009A
:103A8000FFF791FE601C04B2082CF7DB0A20FFF759
:103A900083FD4420FFF787FEFDF7F7FC4FF47A70B3
:103AA000FFF79EFDFDF7F1FC4FF47A70FFF798FDEC
:103AB000FDF7EBFCFFF7BCFDFFF7D5FD8146B9F143
:103AC000000F01D00020D1E75520FFF76CFE002445
:103AD00005E018F80400FFF766FE601C04B2082C2D
:103AE000F7DB0A20FFF758FDBE20FFF75CFE00253C
:103AF0000AE0FFF718FEF94948550846425D294695
:103B0000F7A003F075FD6D1C092DF2DB002505E023
:103B1000F248405D7840F6490F5C6D1C082DF7DBDC
:103B20003946F4A003F064FDEC48007AB84204D0B2
:103B3000F3A003F05DFD002098E7E848007AB84262
:103B400008D1E64800797F2804D0F0A003F050FDAA
:103B500000208BE7E14890F800A04678072E08DDAA
:103B6000F043C6B26FEA0A0000F0FF0A4FF0000906
:103B700001E04FF001093446200204B204EB0A00D0
:103B800004B2204607F082FC834607F023FB0022A4
:103B9000E54BCDE9000107F00DF8CDE9020106F093
:103BA00045FF04B2B9F1000F01D020465EE7604244
:103BB00000B25BE70CB5DD4A127A02B90CBD0021F8
:103BC0002FE0DA4A535C0832525C934200DAF5E7A0
:103BD000D64A535C0832525C934220DD002005E057
:103BE000D24A125C0DF80020421CD0B20828F7DB44
:103BF000002006E0CD4A0832125CCC4B1A54421C1D
:103C0000D0B20828F6DB002006E01DF80030C74AD5
:103C100008321354421CD0B20828F6DBCEE74A1C07
:103C2000D1B20829CDDB00BFC8E70146C048007803
:103C30004840AF4A105CBE4A10701046007870478A
:103C400010B504462046FFF77FFD10BD10B5FFF705
:103C50003AFD10BD10B504462046FFF7A4FD10BD87
:103C600010B50024FFF7E4FCFFF7FDFC04460CB997
:103C7000012010BD0020FCE72DE9F05F01254FF089
:103C8000000900240126A3460020A9490870A9487C
:103C90000068002875D1FFF7E3FF40B90020A6496E
:103CA0000860A4490860A5490860BDE8F09FF020BD
:103CB000FFF7D0FF00BFFFF7C9FF0746FFF7C6FFBA
:103CC0008046012F03D1B8F1010F00D140E04745F4
:103CD00001D0BA461FE098480068854209DA984842
:103CE000005D3040002801DD012000E00020824618
:103CF00007E091480068854201D1012000E00020E2
:103D00008246BAF1000F06D1A946B9F1090F02DACD
:103D10008A48C0F80090BAF1010F05D18848005DCB
:103D200030438749085504E08548005DB043844925
:103D300008555046FFF784FF6D1C7006060E2EB91D
:103D40007F49085DFFF771FF641C0126082CB2DB78
:103D500000BF412D15DB7648007890B97648C0F851
:103D60000090006810B9012072490860734800682B
:103D700071490968884202D10020704908604FF0FB
:103D8000010BBBF1000F02D06D48007838B900205C
:103D90006949086067490860684908608346584671
:103DA00083E710B5FFF768FF10BD644800686249FB
:103DB00008600846006810B901205E490860704735
:103DC00010B500205C4908605A4908605B490860EA
:103DD000FFF752FF10BD2DE9F0470024A046002553
:103DE00000270026A14608215048FFF755F9082171
:103DF0004E480830FFF750F9FFF7E2FF00F0FF09E7
:103E000038E0FDF742FB4E480078042813D04C48B8
:103E100000781A280FD04A48007801280BD048486B
:103E20000078232807D0464800780A2803D0444861
:103E30000078102802D1FFF7B8FF17E0002410E047
:103E40004048007828B13E48025D21463EA003F07C
:103E5000CFFB3B48005D354901EBC6010855601CAE
:103E6000C4B2072CECDD701CC6B200BFFFF799FF8F
:103E700000F0FF09B9F1000FC3D146B937A003F034
:103E8000B7FB4FF480503A4908803A490880012E28
:103E90007AD139A003F0ACFB2448FFF7D7FD0546E3
:103EA00040F25230854203D015B1314805800DE013
:103EB00025B94FF480502E49088007E040F2523077
:103EC000854203D14FF48050294908804FF4805037
:103ED000284908802648B0F9001056E0B0080020B4
:103EE00074656D705B25645D203D2025780D0A00AA
:103EF00074000020637263203D2025780D0A0000C5
:103F0000637263206572726F72210A0063726320AC
:103F10006F6B2C6275742074656D705B345D20214D
:103F20003D20307837660A000000E43FB9080020E1
:103F300088010020840100207C01002080010020F5
:103F40007401002024000020524F4D5F4E4F5B252E
:103F5000645D203D20253032580A00007468657287
:103F600065206973207A65726F200A2000000000C6
:103F70008A0100208C0100207468657265206973D5
:103F8000206F6E65200A000008E088A003F030FB77
:103F90008B48B0F900108BA003F02AFB022E02D14F
:103FA0008DA003F025FBFDF770FA022E7EDBFFF7F4
:103FB00001FE8D480078C8B18CA0FEF7A7FE002452
:103FC00006E08D48015D8DA003F012FB601CC4B2B9
:103FD000082CF6DB002407E087480830015D87A045
:103FE00003F006FB601CC4B2082CF5DB8248FFF727
:103FF0002DFD054640F25230854203D015B1804870
:1040000005800DE025B94FF480507D49088007E018
:1040100040F25230854203D14FF4805078490880F5
:1040200075480830FFF712FD074640F252308742CC
:1040300003D017B1624807800DE027B94FF48050D4
:104040005F49088007E040F25230874203D14FF4C5
:1040500080505B4908806448007870B169A003F023
:10406000C7FA6748B0F9001050A003F0C1FA5448ED
:10407000B0F9001053A003F0BBFA6148B0F900009A
:10408000B0F5805F05D04E48B0F90000B0F5805F14
:1040900005D14FF480505A49088049490880584852
:1040A000B0F900004649B1F9001000E02AE088426A
:1040B00016DD5348B0F90000B0F5805F10D04048DD
:1040C000B0F90000B0F5805F0AD04D48B0F900802B
:1040D0003B48B0F900004A4908803948A0F8008000
:1040E0004148007870B14BA003F082FA4448B0F91F
:1040F00000102EA003F07CFA3148B0F9001031A076
:1041000003F076FABDE8F0872DE9FC41002404E0D5
:104110004348005D0DF80400641C082CF8DB41489E
:104120000668414807684148D0F8008040203D4972
:10413000086000203C490860FFF79EFD70B1012532
:10414000002408E01DF804003549095D884201D0CB
:10415000002502E0641C082CF4DB00E000250024AC
:1041600004E01DF804002E490855641C082CF8DBF7
:104170002C4806602C4807602C48C0F80080284670
:10418000BDE8FC810146264A1170012003E00022AF
:10419000234B1A54401C0828F9DB4022214B1A609B
:1041A0000022224B1A60204B1A607047445331386A
:1041B0004232302054656D70313A2564200A000087
:1041C0008C010020445331384232302054656D70E8
:1041D000323A2564200A00007468657265206973AC
:1041E0002074776F200A00002400002049445F42B9
:1041F0007566663D200A0000B90800202578200079
:104200008A0100206265666F726520737761700AAB
:1042100000000000616674657220737761700A00A7
:10422000740100207C010020840100208001002016
:1042300008B501210C20FDF7ADFA1020ADF8000003
:104240008DF8030003208DF802006946FE48FCF754
:10425000C5FF1021FC48FDF76EF82020ADF80000E6
:1042600048208DF803006946F848FCF7B7FF08BD01
:1042700070B504460025F648008800F4004080B17F
:104280000020F3490988C1F30E01F24A5054214637
:10429000104603F076FB05460DB1012070BD0020ED
:1042A000FCE70020FAE72DE9F04104460E461546EA
:1042B00000270020E6490880FF2C07D800BFE64809
:1042C00000680028FBD1E5490C8003E02146E4A00A
:1042D00001F07FFAFDF7D9F8CEB1C5B1FDF7D5F8F9
:1042E0000EE0FDF7D2F80A20FFF77AF9D8480088E7
:1042F00000F4004020B13046FFF7BAFF00B103E000
:10430000681E80B20500ECD100BF05B9012700206E
:10431000CF4908803846BDE8F08110B5C822D2A147
:10432000D2A0FFF7C0FFC822CFA1D3A0FFF7BBFFE9
:10433000C822CDA1D4A0FFF7B6FFC822CAA1D7A03A
:10434000FFF7B1FF10BD10B54FF4FA72C6A1D6A0A9
:10435000FFF7A9FFBF49D7A0FEF7D8FC0020BC4952
:1043600008804FF4FA72D7A1D7A0FFF79CFF4FF453
:10437000FA72D4A1D7A0FFF796FFB649D0A0FEF7F6
:10438000C5FC4FF4FA72CFA1D5A0FFF78CFF4FF414
:10439000FA72CCA1CCA0FFF786FF4FF4FA72C9A144
:1043A000D1A0FFF780FFAB49C5A0FEF7AFFC4FF4EB
:1043B000FA72C4A1CFA0FFF776FFA649C0A0FEF70E
:1043C000A5FC4FF4FA72A8A1CDA0FFF76CFFA1499C
:1043D000BBA0FEF79BFC00209D490880FDF755F827
:1043E0004FF47A70FFF7FCF8FDF74FF84FF4FA72CC
:1043F0009DA1C6A0FFF757FF38B99649B0A0FEF7B8
:1044000085FC0020924908800FE0FDF73EF84FF44C
:10441000FA7295A1BDA0FFF746FFFDF736F84FF4FD
:104420007A70FFF7DDF8FDF730F88A49A4A0FEF7AF
:104430006DFC4FF4FA728CA1B7A0FFF734FF8549E9
:104440009FA0FEF763FC002081490880FDF71DF85E
:104450004FF47A70FFF7C4F84FF4FA7282A1B3A058
:10446000FFF721FF30B97B4995A0FEF74FFC0020F4
:10447000774908804FF4FA727BA1AFA0FFF713FFD2
:1044800074498FA0FEF742FC002071490880AD4AB4
:10449000AD49AEA001F09DF9FCF7F7FF4FF47A703B
:1044A000FFF79EF86B4986A0FEF730FC00206849B4
:1044B00008804FF4FA726CA1ACA0FFF7F4FE6549D6
:1044C0007FA0FEF723FC00206149088010BD10B5D5
:1044D0004FF4FA7264A174A0FFF7E5FEC822A7A109
:1044E0007FA0FFF7E0FE4FF4FA725FA181A0FFF713
:1044F000DAFE4FF4FA7273A176A0FFF7D4FEA1485A
:104500000078002855D0A04955A003F071F88E49D5
:1045100053A003F06DF88B4951A003F069F84FF4F4
:10452000FA7251A160A0FFF7BEFE30B9494961A0FF
:10453000FEF7ECFB0020464908804FF4FA7261A1B7
:1045400061A0FFF7B0FE4FF4FA725EA161A0FFF721
:10455000AAFE30B93F495AA0FEF7D8FB00203C49DB
:1045600008804FF4FA7240A162A0FFF79CFE30B9B8
:10457000384986A0FEF7CAFB0020354908804FF471
:104580007A7288A179A0FFF78EFE32494CA0FEF71F
:10459000BDFB00202E490880C82278A150A0FFF75B
:1045A00082FE30B92B4982A0FEF7B0FB00202849DB
:1045B000088010BD10B50446002C30D18149086038
:1045C000FCF763FF4FF47A70FFF70AF801207E4989
:1045D000C1F89001FCF759FF4FF47A70FFF700F82B
:1045E000FCF753FF4FF47A70FEF7FAFFFCF74DFF2C
:1045F0004FF47A70FEF7F4FFFCF747FF4FF47A7040
:10460000FEF7EEFFFCF741FF4FF47A70FEF7E8FF8C
:1046100000206C4908606DA0FEF778FB39E129E1C4
:10462000FCF733FF012C0DD16B48006850B9002016
:1046300064490860FCF729FF4FF47A70FEF7D0FF59
:104640000120CBE0F4E0000000080140000C014034
:10465000920400201C0A0020840002400444004010
:1046600025730D0A000000004F4B000041542B43FE
:104670004D47463D3100000041542B435343533DC9
:104680002247534D2200000041542B434E4D493DDB
:10469000322C312C302C302C3000000041542B4374
:1046A0004D47443D3100000041542B4350494E3F9B
:1046B0000000000053494D205374617475733A3DF6
:1046C000257300004F4B3A0041542B4346554E3D55
:1046D0003100000041542B4346554E3F000000007E
:1046E00041542B435351000041542B435245473F03
:1046F0000000000041542B43475245473F00000053
:1047000041542B43495053485554000041542B43C6
:10471000474154543F0D0A0041542B435354543DD8
:1047200022434D4E4554220D0A00000041542B43B4
:10473000494943520D0A000041542B434946535204
:104740000D0A00006B0000205B00002041542B4349
:10475000495053544152543D22544350222C222557
:1047600073222C222573220D0A00000041542B4392
:104770004950535441545553000000002B435351AA
:104780003A000000220000205000002047534D2036
:104790006E6574205265675374617475733A25733E
:1047A00000000000434F4E4E454354204F4B000045
:1047B0005369676E616C20737472656E6774683AD2
:1047C000257300009001214200002142506F77655F
:1047D00072204F4646210A0014812142F849C1F84F
:1047E0009001FCF752FE4FF47A70FEF7F9FEFCF7E9
:1047F0004CFE4FF47A70FEF7F3FEFCF746FE4FF4E2
:104800007A70FEF7EDFE0020EE490860FCF73DFEF1
:104810004FF47A70FEF7E4FEFCF737FE4FF47A703F
:10482000FEF7DEFEFCF731FE4FF47A70FEF7D8FE9D
:10483000012C1FD1E448006801281BD14FF47A7283
:10484000AFF2DC11E1A0FFF72EFD00B913E04FF449
:104850007A72AFF2EC11DDA0FFF725FD00B90AE096
:104860004FF47A72AFF20021D8A0FFF71CFD00B917
:1048700001E000E0D4E600BFFCF707FED4A0FEF79D
:1048800045FAFFF724FE01F0D1FAFFF75CFDFFF7D0
:1048900044FD10BD10B504464FF47A72AFF23821D2
:1048A000AFF23810FFF7FFFC0020CD490880AFF2CF
:1048B0000C11CC4803F065F820B9CBA1C94803F02E
:1048C00060F8B0B14FF47A72CBA1CCA0FFF7EBFC4B
:1048D0002146AFF2742000F07CFF0020C049088020
:1048E0000522CAA11A20FFF7DEFC10B9C9A0FEF705
:1048F0000DFA10BD70B5054600244FF47A72AFF280
:104900009821AFF29810FFF7CEFC0020B449088040
:10491000AFF27011B34803F034F828B9B2A1B1482E
:1049200003F02FF8002840D04FF47A72B2A1B3A060
:10493000FFF7B9FC002426E0285D01280FD1601C98
:10494000285C01280BD10021B548FDF7D1FF00BF3D
:104950004021B348FEF73AF80028F9D011E0601C76
:104960002A5C285D401E02EB0010401EC1B2AC481C
:10497000FDF7BEFF00BF4021A948FEF727F8002839
:10498000F9D0A01C84B2284603F031F8A042D3D855
:1049900000209349088005229CA11A20FFF783FC80
:1049A00060B99CA0FEF7B2F908E00020FFF702FE14
:1049B0000120FFF7FFFD00209A49088070BD2DE916
:1049C000F04104460E4615460027002D33D16422DF
:1049D000AFF26C3194A0FFF766FC224695A14046E9
:1049E00002F012FEC82284A14046FFF75CFC70B9B9
:1049F0003146AFF2943000F0ECFE4FF47A7291A1A0
:104A00001A20FFF750FC002840D101273EE0C822C1
:104A100079A14046FFF747FC3146AFF2BC3000F0C9
:104A2000D8FE4FF47A7287A11A20FFF73CFC0028C9
:104A30002CD101272AE0C822AFF2D431AFF2D43012
:104A4000FFF731FCC822AFF2E031AFF2D430FFF70C
:104A50002AFC21467DA000F0BCFEFCF716FD4FF4B9
:104A60007A70FEF7BDFD3146AFF20C4000F0B1FEAA
:104A7000FCF70BFD4FF47A70FEF7B2FD4FF47A723B
:104A800070A11A20FFF70FFC00B901273846BDE8D6
:104A9000F08110B54FF480517148FCF732FC08B931
:104AA000012010BD0020FCE708B501210820FCF71B
:104AB00071FE4FF48050ADF8000048208DF80300DF
:104AC00003208DF8020069466548FCF787FB08BDA6
:104AD0002DE9F04106460C460020002500278446BB
:104AE00000210BB9BDE8F08102B9FBE71EE013F825
:104AF0000080B8F1000F00D1F4E713F80080B8F19E
:104B00002C0F0FD1A14203DA01F1010808F0FF01D7
:104B1000B14203D100F1010808F0FF07A14201D121
:104B2000844604E000F1010808F0FF00DFE700BF61
:104B3000002013F80780B8F12C0F00D1D2E73D46D2
:104B40000BE013F8058002F8008000F1010808F07E
:104B5000FF0005F1010808F0FF056545F1DB4FF0A6
:104B6000000802F8008000BFBCE770B504460025CD
:104B7000002600BF1EE0605D412805DB605D462821
:104B800002DC605D3638A055605D302805DB605D75
:104B9000392802DC605D2F38A055605D612805DB97
:104BA000605D662802DC605D5638A055701C86B2D8
:104BB000681C85B2204602F01AFFA842DBD870BDFF
:104BC0000000214290012142148121424154000001
:104BD000506F776572204F4E204F4B210A00000026
:104BE000920400201C0A0020414C524541445920A7
:104BF000434F4E4E454354003E00000041542B436A
:104C0000495053454E440D0A0000000053454E44A0
:104C1000204F4B0073656E64206F4B0A000000004C
:104C2000004400409401002041542B434D47463D31
:104C30003000000041542B434D47533D2225732241
:104C4000000000002B434D47533A000041542B43D2
:104C50004D47533D222531332E313373220D0A0047
:104C6000000C01402DE9F04F99B04FF0000AD146F9
:104C700007E0002018A901F8090009F1010000F07F
:104C8000FF09B9F1040FF4DB4FF0000907E0002041
:104C900017A901F8090009F1010000F0FF09B9F1B5
:104CA000040FF4DB4FF0000907E0002016A901F81B
:104CB000090009F1010000F0FF09B9F1040FF4DB6C
:104CC0004FF0000907E0002015A901F8090009F1DB
:104CD000010000F0FF09B9F1040FF4DB4FF0000907
:104CE00007E0002013A901F8090009F1010000F014
:104CF000FF09B9F1050FF4DB4FF0000AF84800781E
:104D000000286FD0F7A1F94802F03BFE88B1F8A166
:104D1000F64802F036FE60B1F7A002F069FC01200F
:104D2000F949888401F04CF82622F749F74800F049
:104D3000A9FFECA1ED4802F024FE88B1F4A1EB48F4
:104D400002F01FFE60B1F5A002F052FC0020EE4917
:104D5000888401F035F82622EB49EC4800F092FFF8
:104D6000F2A1E24802F00DFE78B1F1A1DF4802F0B5
:104D700008FE50B1EFA002F03BFC01F057F8002014
:104D8000FFF718FC0120FFF715FCD6A1D74802F069
:104D9000F8FD00286DD0E9A1D44802F0F2FD00280A
:104DA00067D0E6A1D14802F0ECFD8246BAF1000FCF
:104DB0005FD0002406E0601D1AF8000018A908550D
:104DC000601CC4B2032CF6DB002407E004F10900E8
:104DD0001AF8000017A90855601CC4B2032CF5DBB3
:104DE000002408E0DFE004F10D001AF8000016A925
:104DF0000855601CC4B2032CF5DB002407E004F165
:104E000011001AF8000015A90855601CC4B2032C43
:104E1000F5DB002407E004F115001AF8000013A9DF
:104E20000855601CC4B2042CF5DB18A802F09CFDE8
:104E3000B549C88017A802F097FDB349088116A8A4
:104E400002F092FDB049488115A802F08DFDAE49EF
:104E5000888113A802F088FDAB49C8814FF0000A91
:104E600000F0AEFFFEF722F9FFF76DFA0020B5491A
:104E70000870B5A19D4802F084FD8246BAF1000F8A
:104E800024D004F10E001AF80000303864214843A1
:104E900004F10F011AF80110303901EB810100EB28
:104EA000410104F110001AF80000303808444FF6B0
:104EB000FF7101EA4000944908824FF0000A00F0B7
:104EC0007FFF26229049914800F0DCFEA2A187488E
:104ED00002F057FD8246BAF1000F61D04FF0000A90
:104EE000A748006805F016FE07460022A54B05F00E
:104EF00009FC054605F018FB834606F06BF9CDE981
:104F00001001A148006805F005FE054600229D4BF2
:104F100005F0F8FB074605F007FB834606F05AF953
:104F2000CDE90E017849488A05F0F4FD05460022D6
:104F3000944B05F0E7FBCDE90C017349888A05F035
:104F4000E9FD054600228F4B05F0DCFBCDE90A01A7
:104F50006D48808B1290DDE91001CDE90801DDE993
:104F60000E01CDE90601129800EBD07040100490BC
:104F7000DDE90C01CDE90201DDE90A01834ACDE951
:104F8000000183A1914802F03FFBFCF77EFA4FF449
:104F90007A70FEF725FBFCF778FA8C48FFF77AFC6D
:104FA00000204F49087019B0BDE8F08FF0B5ABB0E4
:104FB000642112A802F03AFD00250024002600BF5B
:104FC00000BF04E0002010A94855681CC5B2052D9B
:104FD000F8DB002504E000200EA94855681CC5B286
:104FE000052DF8DB002504E000200DA94855681CBC
:104FF000C5B2032DF8DB002504E000200CA94855BC
:10500000681CC5B2042DF8DB002504E000200BA9C4
:105010004855681CC5B2042DF8DB002504E00020CB
:105020000AA94855681CC5B2042DF8DB002504E028
:10503000002009A94855681CC5B2042DF8DB0025DD
:1050400004E0002007A94855681CC5B2052DF8DB0F
:10505000002504E000205E494855681CC5B20F2DAC
:10506000F8DBFCF712FA4FF47A72AFF6042159A07C
:10507000FFF719F9FCF709FA59A15A4802F081FC27
:10508000074627B958A1574802F07BFC0746002481
:1050900004E0385D4E490855601CC4B20D2CF8DBA5
:1050A00053A1384602F06DFC0646002E16D00024AF
:1050B00005E0601D305C10A90855601CC4B2042CCA
:1050C000F7DB002406E004F10900305C0EA9085566
:1050D000601CC4B2042CF6DB002494E0B8E00000AD
:1050E0005C0400202A44465444000000AC0B00201D
:1050F0005345544F4E5357004851205345544F4E3B
:105100005357210A000000005808002080F90008C9
:105110005345544F46465357000000004851205312
:1051200045544F46465357210A0000002A48510073
:10513000523100004851205231210A005345544950
:1051400050000000500400202A444654442C53458B
:105150005454494D452C00002A48512C31323334E7
:1051600035363839302C49332C3039323432352CFD
:10517000302C302C382C24436F6E66696731230045
:1051800040000020000059403C0000209A0100200F
:1051900025732A444654442C456D563D252E3266CF
:1051A0007046204675563D252E326670462046696B
:1051B000563D256473202043313D252E32667046CE
:1051C0002043323D252E326670462300FE0100202A
:1051D0002F09002041542B434D47523D3100000020
:1051E000383631001C0A002031303634000000000F
:1051F000534554494400000004F10D00305C0DA9F2
:105200000855601CC4B2022CF6DB10A802F0ACFBFF
:10521000E24908800EA802F0A7FBE04948800DA8EB
:1052200002F0A2FBDD49888000F0CAFDFDF73EFFD9
:10523000DA4880880090D94843880288D8A112A80B
:1052400002F0E2F90026012212A9DE48FFF7B7FBBF
:10525000AFF21811384602F094FB0646002E6DD0CE
:10526000002405E0601D305C0CA90855601CC4B228
:10527000032CF7DB002406E004F10900305C0BA9E5
:105280000855601CC4B2032CF6DB002406E004F1D0
:105290000D00305C0AA90855601CC4B2032CF6DB73
:1052A000002406E004F11100305C09A90855601CD7
:1052B000C4B2032CF6DB002406E004F11500305CD8
:1052C00007A90855601CC4B2042CF6DB0CA802F038
:1052D0004BFBB249C8800BA802F046FBAF490881DE
:1052E0000AA802F041FBAD49488109A802F03CFB45
:1052F000AA49888107A802F037FBA849C88100F0B5
:105300005FFDFDF7D3FEA548C089A4498989A34A5A
:105310005289CDE900210290A0480389C288AAA140
:1053200012A802F071F90026012212A9A548FFF780
:1053300046FBFFF708F80020AF490870AFA13846D8
:1053400002F01FFB20B9AFA1384602F01AFB10B3E0
:10535000AEA0FDF7DBFCFDF7A9FE9048C0898F49A0
:1053600089898E4A52898D4B1B89CDE90232CDE95C
:1053700004108A48C08889498988CDE90010874887
:1053800043880288A3A112A802F03EF9012212A9C3
:105390008C48FFF714FBAFF26C21384602F0F1FAAB
:1053A000F0B1AFF27421384602F0EBFAC0B1AFF2BF
:1053B0007C20FDF7ABFC79488088009077484388D3
:1053C0000288A2A112A802F01FF9012212A97D48A9
:1053D000FFF7F5FA0020FFF7EDF80120FFF7EAF8F4
:1053E000A2A1384602F0CDFA06461EB10120A1491D
:1053F00008700026AFF2B021384602F0C2FA064625
:1054000006B304F10E00305C30386421484304F1E7
:105410000F01715C303901EB810100EB410104F1B6
:105420001000305C303808444FF6FF7101EA40004C
:105430005A490882002600F0C3FC262257498E48AC
:1054400000F020FC0026C822AFF6E451AFF6B450BD
:10545000FEF729FF2BB0F0BD10B5FCF716F8FFF7EB
:10546000A5FDFCF712F8FFF7FDFBFCF70EF800F0C6
:1054700014FDFCF70AF84948008A401E7F49097864
:10548000884234DCFCF701F800207C4908707C4835
:10549000FFF76BFB7B48FFF768FB5748007828B99C
:1054A0000120554908707748FFF724FA76480078BC
:1054B00078280DDB0020744908707248FFF71AFA4B
:1054C000FBF7E3FF4FF47A70FEF78AF8FBF7DDFF96
:1054D0006B48FFF70FFA6D480078401C6B49087065
:1054E000FEF7F5FF6A480078401C6949087010BD56
:1054F00010B53222AFF69061AFF69050FEF7D3FEB2
:10550000FBF7C3FFAFF66451624802F03AFA28B9DC
:10551000AFF62C115F4802F034FA18B100205E4952
:10552000088015E05C480088B0F5347F10DD5BA092
:10553000FDF7ECFB5D4801885DA0FDF7E7FB00206F
:10554000FFF738F80120FFF735F8002052490880AE
:1055500056480088B0F5E16F0CDD59A0FDF7D6FB89
:105560004D4801885AA0FDF7D1FB00F05FFC0020F8
:105570004E49088010BD5A48007850B10748808CC9
:1055800018B101205749086006E00020554908601D
:1055900002E00020534908607047000058080020CE
:1055A00053455420494420204F4B21200D0A4944A3
:1055B0003A25342E346425342E346425322E326458
:1055C000000000002F09002053455420495020209E
:1055D0004F4B200D0A49503A25332E33642E253384
:1055E0002E33642E25332E33642E25332E33642C34
:1055F00025342E3464000000500400204348454107
:105600004B000000434845434B00000043484543DE
:105610004B210A0049443A25342E346425342E3473
:105620006425322E32640D0A49503A25332E3364F4
:105630002E25332E33642E25332E33642E25332E20
:1056400033642C25342E34640000000052657374DA
:105650006172742E2E2E49443A25342E346425343A
:105660002E346425322E326400000000434B475034
:10567000530000009901002080F900084E0000202E
:10568000C6020020980300203A00002051040020A8
:105690004F0400201C0A00209401002047534D5F56
:1056A0006661696C643E3732300A00009201002066
:1056B0004750535F6661696C643D25640A000000D1
:1056C0004750535F6661696C643E313830300A0080
:1056D00047534D5F6661696C643D25640A000000B4
:1056E000A9040020A081214210B540F22551F248C2
:1056F000FDF782F900285BD0EF48FDF7FDF8C4B252
:10570000EE480088B0F5C87F10DA0020EC49087038
:10571000EA48008810B90120EA490870E748018882
:105720000088401CE54A1080E7484454E748007868
:10573000002838D1E6480088C8282CDAE5480078E7
:1057400080B92A2C2FD10020E14908800846018821
:105750000088401CDE4A1080DF4844540120DD49A7
:10576000087020E0DA4801880088401CD84A108080
:10577000D94844540D2C05D0232C03D01046008862
:10578000C82810DB0020D2490880D24908700120C7
:10579000CE49087007E00020CD490880CD49087047
:1057A0000120CA49087040F22551C348FDF74EF95F
:1057B00010BD70B504460D4600212046FBF7E5F804
:1057C00029462046FBF7F6F801212046FBF7DDF8D5
:1057D00070BD0FB438B505A80090C048009A049970
:1057E00001F0DAFE0020009000BFBD4800680028EC
:1057F000FBD1BA4802F0FBF884B22146B848001F3A
:10580000FFF7D7FF38BC5DF814FB70B58CB00646C7
:105810000C46154601210846FBF7AFFF3046FAF764
:10582000E7FF01940295102003900020049005905A
:105830008020069000200790089009904FF4805037
:105840000A9000200B9001A93046FBF773F80CB0CA
:1058500070BD10B586B0044601210420FBF79AFF05
:1058600001214804FBF7A3FF9348FCF705FF042040
:10587000ADF8100003208DF8120018208DF81300E9
:1058800004A99848FBF7AAFC0820ADF810000420F2
:105890008DF8130004A99348FBF7A0FC00940020A6
:1058A000ADF80400ADF80600ADF80800ADF80C0046
:1058B0000C20ADF80A0069467F48FCF720FF012262
:1058C00080217D48FCF7D8FF844A7B49091D844824
:1058D000001FFFF79AFF01217748FCF79CFF012288
:1058E00040F225517448FCF7A2FF26208DF81400E1
:1058F00002208DF8150003208DF8160001208DF888
:10590000170005A8FAF7E3FC00206C49088006B0F0
:1059100010BD10B501218807FCF799FE00287FD043
:105920007148007820B171480078401C6F490870B8
:105930006448007820B162480078401C60490870D3
:105940006B48007820B16B480078401C69490870AA
:1059500069480078401C684908706448007802284B
:105960000ADB0020614908705F49087063480088BD
:1059700040F40040614908805148007805280ADB5E
:1059800000204F4908704F4908704C48008840F487
:1059900000404A4908805748007803280ADB002065
:1059A00054490870524908705548008840F4004036
:1059B000534908805048007819282BDD5148808BC6
:1059C00051490978884204DD4F480078401C4E490F
:1059D00008704C48008A4D490978884204DD4B48DC
:1059E0000078401C4949087049480078782804DA52
:1059F00047480078401C4649087046480088401CCB
:105A00004449088044480088401C434908800020DD
:105A1000394908700121880700E001E0FCF728FE01
:105A200010BD10B504464CB100214FF08040FCF78A
:105A3000D9FD01218807FCF741FB04E000214FF06C
:105A40008040FCF73BFB10BD7FB505460C460121AD
:105A50000846FBF7ACFE4FF08040FBF7FFFEA8B214
:105A6000ADF80800A0B2ADF804000020ADF80A00BF
:105A7000ADF8060001A94FF08040FBF7C3FF0122FB
:105A800011469007FCF735FB1C208DF80000032021
:105A90008DF8010004208DF8020001208DF803002C
:105AA0006846FAF714FC00214FF08040FCF706FB33
:105AB0000120FFF7B6FF7FBD0044004092040020A4
:105AC00058040020590400201C0A00205C04002017
:105AD000600400205D040020AC0B0020B809002009
